{
  "_format": "hh-sol-artifact-1",
  "contractName": "market",
  "sourceName": "contracts/market.sol",
  "abi": [
    {
      "inputs": [],
      "stateMutability": "nonpayable",
      "type": "constructor"
    },
    {
      "anonymous": false,
      "inputs": [
        {
          "indexed": false,
          "internalType": "uint256",
          "name": "id",
          "type": "uint256"
        },
        {
          "indexed": false,
          "internalType": "string",
          "name": "name",
          "type": "string"
        },
        {
          "indexed": false,
          "internalType": "string",
          "name": "description",
          "type": "string"
        },
        {
          "indexed": false,
          "internalType": "uint256",
          "name": "timestamp",
          "type": "uint256"
        },
        {
          "indexed": false,
          "internalType": "uint256",
          "name": "price",
          "type": "uint256"
        },
        {
          "indexed": false,
          "internalType": "address payable",
          "name": "seller",
          "type": "address"
        }
      ],
      "name": "ProductPurchased",
      "type": "event"
    },
    {
      "anonymous": false,
      "inputs": [
        {
          "indexed": false,
          "internalType": "uint256",
          "name": "id",
          "type": "uint256"
        },
        {
          "indexed": false,
          "internalType": "string",
          "name": "name",
          "type": "string"
        },
        {
          "indexed": false,
          "internalType": "string",
          "name": "description",
          "type": "string"
        },
        {
          "indexed": false,
          "internalType": "uint256",
          "name": "timestamp",
          "type": "uint256"
        },
        {
          "indexed": false,
          "internalType": "uint256",
          "name": "price",
          "type": "uint256"
        },
        {
          "indexed": false,
          "internalType": "address payable",
          "name": "seller",
          "type": "address"
        }
      ],
      "name": "ProductUploaded",
      "type": "event"
    },
    {
      "inputs": [
        {
          "internalType": "uint256",
          "name": "productId",
          "type": "uint256"
        }
      ],
      "name": "buyProduct",
      "outputs": [],
      "stateMutability": "payable",
      "type": "function"
    },
    {
      "inputs": [],
      "name": "getProducts",
      "outputs": [
        {
          "components": [
            {
              "internalType": "uint256",
              "name": "id",
              "type": "uint256"
            },
            {
              "internalType": "string",
              "name": "name",
              "type": "string"
            },
            {
              "internalType": "string",
              "name": "description",
              "type": "string"
            },
            {
              "internalType": "uint256",
              "name": "timestamp",
              "type": "uint256"
            },
            {
              "internalType": "uint256",
              "name": "price",
              "type": "uint256"
            },
            {
              "internalType": "address payable",
              "name": "seller",
              "type": "address"
            },
            {
              "internalType": "bool",
              "name": "purchased",
              "type": "bool"
            }
          ],
          "internalType": "struct market.Product[]",
          "name": "",
          "type": "tuple[]"
        }
      ],
      "stateMutability": "view",
      "type": "function"
    },
    {
      "inputs": [
        {
          "internalType": "string",
          "name": "_name",
          "type": "string"
        },
        {
          "internalType": "uint256",
          "name": "_price",
          "type": "uint256"
        },
        {
          "internalType": "string",
          "name": "_description",
          "type": "string"
        }
      ],
      "name": "uploadProduct",
      "outputs": [],
      "stateMutability": "nonpayable",
      "type": "function"
    }
  ],
  "bytecode": "0x60806040526000805534801561001457600080fd5b5033600260006101000a81548173ffffffffffffffffffffffffffffffffffffffff021916908373ffffffffffffffffffffffffffffffffffffffff16021790555061139b806100656000396000f3fe6080604052600436106100345760003560e01c8063760f6b41146100395780638642269e14610062578063c29b2f201461007e575b600080fd5b34801561004557600080fd5b50610060600480360381019061005b919061089e565b6100a9565b005b61007c60048036038101906100779190610929565b6102bb565b005b34801561008a57600080fd5b506100936104fc565b6040516100a09190610ba5565b60405180910390f35b60008351116100ed576040517f08c379a00000000000000000000000000000000000000000000000000000000081526004016100e490610c24565b60405180910390fd5b60008211610130576040517f08c379a000000000000000000000000000000000000000000000000000000000815260040161012790610c90565b60405180910390fd5b60008081548092919061014290610cdf565b919050555060016040518060e0016040528060005481526020018581526020018381526020014281526020018481526020013373ffffffffffffffffffffffffffffffffffffffff1681526020016000151581525090806001815401808255809150506001900390600052602060002090600602016000909190919091506000820151816000015560208201518160010190816101df9190610f33565b5060408201518160020190816101f59190610f33565b50606082015181600301556080820151816004015560a08201518160050160006101000a81548173ffffffffffffffffffffffffffffffffffffffff021916908373ffffffffffffffffffffffffffffffffffffffff16021790555060c08201518160050160146101000a81548160ff02191690831515021790555050507f21e6865f776ab34e3bc3b8d2b23cc5ae3d0f9ecda104082a6b18514a09e0d0a360005484834286336040516102ae9695949392919061105c565b60405180910390a1505050565b6000600180836102cb91906110cb565b815481106102dc576102db6110ff565b5b9060005260206000209060060201905060008160050160009054906101000a900473ffffffffffffffffffffffffffffffffffffffff1690508160050160149054906101000a900460ff1615610367576040517f08c379a000000000000000000000000000000000000000000000000000000000815260040161035e9061117a565b60405180910390fd5b3373ffffffffffffffffffffffffffffffffffffffff168173ffffffffffffffffffffffffffffffffffffffff16036103d5576040517f08c379a00000000000000000000000000000000000000000000000000000000081526004016103cc906111e6565b60405180910390fd5b816004015434101561041c576040517f08c379a000000000000000000000000000000000000000000000000000000000815260040161041390611252565b60405180910390fd5b60018260050160146101000a81548160ff0219169083151502179055508073ffffffffffffffffffffffffffffffffffffffff166108fc83600401549081150290604051600060405180830381858888f19350505050158015610483573d6000803e3d6000fd5b507f0d203414988196c1f0abb7a3fc7279d495d5e21a947494ca8960519146695f0b826000015483600101846002014286600401548760050160009054906101000a900473ffffffffffffffffffffffffffffffffffffffff166040516104ef969594939291906112f6565b60405180910390a1505050565b60606001805480602002602001604051908101604052809291908181526020016000905b8282101561070557838290600052602060002090600602016040518060e00160405290816000820154815260200160018201805461055d90610d56565b80601f016020809104026020016040519081016040528092919081815260200182805461058990610d56565b80156105d65780601f106105ab576101008083540402835291602001916105d6565b820191906000526020600020905b8154815290600101906020018083116105b957829003601f168201915b505050505081526020016002820180546105ef90610d56565b80601f016020809104026020016040519081016040528092919081815260200182805461061b90610d56565b80156106685780601f1061063d57610100808354040283529160200191610668565b820191906000526020600020905b81548152906001019060200180831161064b57829003601f168201915b5050505050815260200160038201548152602001600482015481526020016005820160009054906101000a900473ffffffffffffffffffffffffffffffffffffffff1673ffffffffffffffffffffffffffffffffffffffff1673ffffffffffffffffffffffffffffffffffffffff1681526020016005820160149054906101000a900460ff16151515158152505081526020019060010190610520565b50505050905090565b6000604051905090565b600080fd5b600080fd5b600080fd5b600080fd5b6000601f19601f8301169050919050565b7f4e487b7100000000000000000000000000000000000000000000000000000000600052604160045260246000fd5b6107758261072c565b810181811067ffffffffffffffff821117156107945761079361073d565b5b80604052505050565b60006107a761070e565b90506107b3828261076c565b919050565b600067ffffffffffffffff8211156107d3576107d261073d565b5b6107dc8261072c565b9050602081019050919050565b82818337600083830152505050565b600061080b610806846107b8565b61079d565b90508281526020810184848401111561082757610826610727565b5b6108328482856107e9565b509392505050565b600082601f83011261084f5761084e610722565b5b813561085f8482602086016107f8565b91505092915050565b6000819050919050565b61087b81610868565b811461088657600080fd5b50565b60008135905061089881610872565b92915050565b6000806000606084860312156108b7576108b6610718565b5b600084013567ffffffffffffffff8111156108d5576108d461071d565b5b6108e18682870161083a565b93505060206108f286828701610889565b925050604084013567ffffffffffffffff8111156109135761091261071d565b5b61091f8682870161083a565b9150509250925092565b60006020828403121561093f5761093e610718565b5b600061094d84828501610889565b91505092915050565b600081519050919050565b600082825260208201905092915050565b6000819050602082019050919050565b61098b81610868565b82525050565b600081519050919050565b600082825260208201905092915050565b60005b838110156109cb5780820151818401526020810190506109b0565b60008484015250505050565b60006109e282610991565b6109ec818561099c565b93506109fc8185602086016109ad565b610a058161072c565b840191505092915050565b600073ffffffffffffffffffffffffffffffffffffffff82169050919050565b6000610a3b82610a10565b9050919050565b610a4b81610a30565b82525050565b60008115159050919050565b610a6681610a51565b82525050565b600060e083016000830151610a846000860182610982565b5060208301518482036020860152610a9c82826109d7565b91505060408301518482036040860152610ab682826109d7565b9150506060830151610acb6060860182610982565b506080830151610ade6080860182610982565b5060a0830151610af160a0860182610a42565b5060c0830151610b0460c0860182610a5d565b508091505092915050565b6000610b1b8383610a6c565b905092915050565b6000602082019050919050565b6000610b3b82610956565b610b458185610961565b935083602082028501610b5785610972565b8060005b85811015610b935784840389528151610b748582610b0f565b9450610b7f83610b23565b925060208a01995050600181019050610b5b565b50829750879550505050505092915050565b60006020820190508181036000830152610bbf8184610b30565b905092915050565b600082825260208201905092915050565b7f496e76616c6964206e616d650000000000000000000000000000000000000000600082015250565b6000610c0e600c83610bc7565b9150610c1982610bd8565b602082019050919050565b60006020820190508181036000830152610c3d81610c01565b9050919050565b7f5072696365206d7573742062652067726561746572207468616e203000000000600082015250565b6000610c7a601c83610bc7565b9150610c8582610c44565b602082019050919050565b60006020820190508181036000830152610ca981610c6d565b9050919050565b7f4e487b7100000000000000000000000000000000000000000000000000000000600052601160045260246000fd5b6000610cea82610868565b91507fffffffffffffffffffffffffffffffffffffffffffffffffffffffffffffffff8203610d1c57610d1b610cb0565b5b600182019050919050565b7f4e487b7100000000000000000000000000000000000000000000000000000000600052602260045260246000fd5b60006002820490506001821680610d6e57607f821691505b602082108103610d8157610d80610d27565b5b50919050565b60008190508160005260206000209050919050565b60006020601f8301049050919050565b600082821b905092915050565b600060088302610de97fffffffffffffffffffffffffffffffffffffffffffffffffffffffffffffffff82610dac565b610df38683610dac565b95508019841693508086168417925050509392505050565b6000819050919050565b6000610e30610e2b610e2684610868565b610e0b565b610868565b9050919050565b6000819050919050565b610e4a83610e15565b610e5e610e5682610e37565b848454610db9565b825550505050565b600090565b610e73610e66565b610e7e818484610e41565b505050565b5b81811015610ea257610e97600082610e6b565b600181019050610e84565b5050565b601f821115610ee757610eb881610d87565b610ec184610d9c565b81016020851015610ed0578190505b610ee4610edc85610d9c565b830182610e83565b50505b505050565b600082821c905092915050565b6000610f0a60001984600802610eec565b1980831691505092915050565b6000610f238383610ef9565b9150826002028217905092915050565b610f3c82610991565b67ffffffffffffffff811115610f5557610f5461073d565b5b610f5f8254610d56565b610f6a828285610ea6565b600060209050601f831160018114610f9d5760008415610f8b578287015190505b610f958582610f17565b865550610ffd565b601f198416610fab86610d87565b60005b82811015610fd357848901518255600182019150602085019450602081019050610fae565b86831015610ff05784890151610fec601f891682610ef9565b8355505b6001600288020188555050505b505050505050565b61100e81610868565b82525050565b600061101f82610991565b6110298185610bc7565b93506110398185602086016109ad565b6110428161072c565b840191505092915050565b61105681610a30565b82525050565b600060c0820190506110716000830189611005565b81810360208301526110838188611014565b905081810360408301526110978187611014565b90506110a66060830186611005565b6110b36080830185611005565b6110c060a083018461104d565b979650505050505050565b60006110d682610868565b91506110e183610868565b92508282039050818111156110f9576110f8610cb0565b5b92915050565b7f4e487b7100000000000000000000000000000000000000000000000000000000600052603260045260246000fd5b7f50726f6475637420616c726561647920736f6c64000000000000000000000000600082015250565b6000611164601483610bc7565b915061116f8261112e565b602082019050919050565b6000602082019050818103600083015261119381611157565b9050919050565b7f43616e6e6f742062757920796f7572206f776e2070726f647563740000000000600082015250565b60006111d0601b83610bc7565b91506111db8261119a565b602082019050919050565b600060208201905081810360008301526111ff816111c3565b9050919050565b7f496e73756666696369656e742066756e64730000000000000000000000000000600082015250565b600061123c601283610bc7565b915061124782611206565b602082019050919050565b6000602082019050818103600083015261126b8161122f565b9050919050565b6000815461127f81610d56565b6112898186610bc7565b945060018216600081146112a457600181146112ba576112ed565b60ff1983168652811515602002860193506112ed565b6112c385610d87565b60005b838110156112e5578154818901526001820191506020810190506112c6565b808801955050505b50505092915050565b600060c08201905061130b6000830189611005565b818103602083015261131d8188611272565b905081810360408301526113318187611272565b90506113406060830186611005565b61134d6080830185611005565b61135a60a083018461104d565b97965050505050505056fea264697066735822122062a241ef68029df69b10c28760b5cbce7b902a058eb460705e146ecd9a579be864736f6c63430008110033",
  "linkReferences": {},
  "deployedLinkReferences": {}
}